:020000041000EA
:1000000000B5324B212058609868022188439860DF
:10001000D860186158612E4B002199600221596106
:100020000121F02299502B49196001219960352056
:1000300000F044F80222904214D00621196600F024
:1000400034F8196E01211966002018661A6600F04E
:100050002CF8196E196E196E052000F02FF8012189
:100060000842F9D1002199601B49196000215960AB
:100070001A491B48016001219960EB211966A021F2
:10008000196600F012F800219960164914480160C1
:100090000121996001BC002800D000471248134993
:1000A000086003C880F30888084703B5996A0420EC
:1000B0000142FBD001200142F8D103BD02B5186610
:1000C0001866FFF7F2FF186E186E02BD00000240BE
:1000D000000000180000070000035F00212200005C
:1000E000F4000018222000A00001001008ED00E03C
:1000F00000000000000000000000000074B24E7A12
:1001000000200420F7010010C3010010C5010010F9
:10011000C1010010C1010010C1010010C101001097
:10012000C1010010C1010010C1010010C701001081
:10013000C1010010C1010010C9010010CB01001065
:10014000CD010010CD010010CD010010CD01001037
:10015000CD010010CD010010CD010010CD01001027
:10016000CD010010CD010010CD010010CD01001017
:10017000CD010010CD010010CD010010CD01001007
:10018000CD010010CD010010CD010010CD010010F7
:10019000CD010010CD010010CD010010CD010010E7
:1001A000CD010010CD010010CD010010CD010010D7
:1001B000CD010010CD010010CD010010CD010010C7
:1001C00000BE00BE00BE00BE00BE00BE00F04BF888
:1001D000103800BEF2EB8871E86D00100C6E001054
:1001E0003402001090A31AE700202149086006C8D5
:1001F00081F3088810471F48006800282FD10DA4FC
:100200000ECC002902D000F012F8F9E71A491B4A77
:10021000002000E001C19142FCD1194988471949E9
:1002200088471949884700BEFDE701C901C29A42C3
:10023000FBD370470C6E0010C0000020A00200200D
:10024000EC6F00100000042000000420EC6F001090
:1002500000100420001004200000000070470B482C
:1002600002F04AFD0047EFF30580C0B2704700007E
:1002700008ED00E0000000D0A0020020700902207C
:10028000F916001027030010B5160010575600008D
:1002900006005250ABB36053486400100600525041
:1002A000861C030258640010060052505422A29D7E
:1002B0006464001005005250DE65F468EC6F0010B5
:1002C000F8B5C04610B5064C2378002B07D1054B76
:1002D000002B02D0044800E000BF0123237010BDB2
:1002E000A003002000000000A8560010044B10B529
:1002F000002B03D00349044800E000BF10BDC046F6
:1003000000000000A4030020A856001010B503F060
:100310007FFD192000F034F8D0231B0680229204C0
:100320005A625A6110BD10B5FFF7F0FF002010BDF2
:1003300010B5034B034A8421034801F0BFF9C046BE
:10034000A8560010F8560010C8560010704700005C
:1003500010B58300084A944663441C6840226240FA
:10036000C02414408022520113431C60C000034B80
:100370009C466044416010BD04C001400040014003
:1003800010B501238340D0221206936293610521A8
:10039000FFF7DEFF10BD0000EFF3108072B6034BD5
:1003A0001B68002BFBD0BFF35F8F70472C0100D080
:1003B000BFF35F8F024B00221A6080F310887047F2
:1003C0002C0100D0F8B506000C001500FFF7E4FF83
:1003D000E308F718F15C07222240012393400B4207
:1003E00005D1DBB20B433B70FFF7E2FFF8BD210004
:1003F000280001F0FDF90000034B1B6802201840A3
:10040000431E9841C0B2704700C00640002307E079
:10041000054A9A189200BFF35F8F002111600133E3
:100420001F2BF5D97047C04640000034054A1078AC
:10043000431CDBB21370172B02D9130010221A7061
:100440007047C046C8010020074B9B6810308000F1
:100450001950BFF35F8FBFF35F8F044B002119600A
:1004600082F310887047C04600ED00E0240100D000
:1004700010B5091A081F0A4B9C466144094A91426B
:1004800008D8C30706D440104005400D064B18435A
:1004900080B210BD054B064A9921064801F00EF9BD
:1004A000FC070000FE0F000000E0FFFF18570010DF
:1004B000505900104857001010B5091A04394C085B
:1004C000090B08D14905490D064A11430180064B25
:1004D0002343438010BD054B054AA121054801F087
:1004E000EDF8C04600F0FFFF00F8FFFF7C5700105A
:1004F000245900104857001001238340034A106814
:100500001840431E9841C0B27047C04600E100E069
:10051000002904D0034B1860034B18607047034B4D
:100520001860FBE780E200E000E100E080E100E02D
:1005300010B5012383401800FFF7EAFF10BD00004B
:10054000024B9B6810308000C058704700ED00E0FF
:1005500070B504000D00EFF3108672B60C4B1B68EB
:10056000002BFBD0BFF35F8F2000FFF7E9FF094BA3
:10057000984201D0A84205D1320029002000FFF79F
:1005800063FF70BD044B054A7C21054801F096F8D5
:10059000240100D0CD0100108C5700106C590010C0
:1005A00048570010F0B5CE46474680B583B00600E8
:1005B0000D00EFF3108872B6564B1B68002BFBD072
:1005C000BFF35F8F544B9A6834001034A300D758A0
:1005D000524B9F4207D0AF4200D199E00197504B58
:1005E000FB1A2F2B09D9424639003000FFF72CFFA8
:1005F00003B0C0BCB946B046F0BD3000FFF77CFF89
:10060000814600213000FFF793FFBFF35F8FFFF7B4
:100610002AFE002801D0844211D10123019C9C4371
:100620000022A368AB4212D00622A256002A0DDB9C
:1006300053009B189B002200394CE418F1E72C2151
:10064000384B394AFF31394801F038F82200AB42C3
:1006500057D106256557002D39DB6B005B199A00D1
:100660002F4B9B189A68A260DA79E27106229A569B
:10067000A2719B795BB2002B10DABD200002A08032
:100680006B005B199B00264AD318294A117899718F
:10069000157049463000FFF74BFFA4E7201D6B00A3
:1006A0005B199B001E4A9B181A1D9B88D90A1C299E
:1006B00007D15B055B15023359005118FFF7D8FECF
:1006C000DDE71C4B1C4AA721184800F0F7FF002863
:1006D00012D1002A0ED0FF239371184B9380144A35
:1006E0001378A371164B0E49641A644163431B0DC2
:1006F0001370CEE7094FF2E7201D1249FFF7DCFE29
:10070000C7E76021104B084AFF31084800F0D6FFC8
:10071000024F68E7240100D000ED00E0CD01001099
:10072000CC010020A05800103C5900104857001080
:100730006D090220885800105C59001000BDFFFFB1
:10074000AAAA000006020020C458001070B50400D8
:10075000012606432D4BF31A2F2B28D8FFF783FDD4
:1007600000282BD0EFF3108C72B6294B1B68002B9E
:10077000FBD0BFF35F8F274D22002449521A52410C
:1007800055432D0D6DB2244B9B6880001B58B3421E
:100790001BD00022032A32D853009B189B001B4910
:1007A000CB189B795BB2AB421FD00132F2E7C2217A
:1007B0001A4B1B4A49001B4800F080FF88211A4B46
:1007C000174AFF31174800F079FF134B9B68174A0F
:1007D0001A50174B1A78A2711D70BFF35F8F0C4B24
:1007E00000221A608CF3108870BD0800530099181D
:1007F00089004118FF268E710E4A8A80E9E7CC21D4
:100800000D4B074A4900074800F058FFCC01002073
:10081000240100D0AAAA000000ED00E0CC5800108E
:100820000859001048570010F4580010CD0100106E
:100830006D09022000BDFFFF005900100022044B8B
:1008400002E0044902C30132072AFAD97047C046C0
:1008500000E400E080808080024B9C466144890077
:10086000016070474000003470B505000C000800BE
:1008700000F07AFB200000F04BFC0849200000F05B
:100880008BFBFFF7D3FD064B9C46604480006860FD
:100890002C75A400034BE55070BDC0467D0B0010C5
:1008A000400000343C04002010B5002922D0036829
:1008B0001B7B99421ED8174B9C46614409018368F3
:1008C0009C4661440C684968002A19D003681B7B68
:1008D0009A4215D883680F488446624412019A18D8
:1008E00010685368020001208B4201D80ED000200E
:1008F000C0B210BD084B094A3B21094800F0DEFE9A
:10090000054B064A3B21064800F0D8FEA242EFD82C
:10091000EDE7C046FFFFFF0FCC590010C45B00108D
:100920009C59001010B500291ED0037B99421BD89A
:100930004B005B18033B0468A4466344002919D0AC
:10094000002A1DD0914221D0002A25D0047BA2424A
:1009500022D8046850008018033820188170197854
:1009600000291FD11A7010BD104B114A682111487F
:1009700000F0A4FE104B114A6F310E4800F09EFEAD
:100980000F4B0E4A70210B4800F098FE0D4B0B4A9E
:100990007121084800F092FE044B054A6821054881
:1009A00000F08CFE41701A70DDE7C046005A00105E
:1009B000185C00101C5A00105C5A0010F45B001008
:1009C000685A0010745A001070B506000D0014002B
:1009D000002914D0002A14D0806873689847002832
:1009E00006D0220029003000FFF79CFF280007E016
:1009F0002A0021003000FFF795FF200000E01000E2
:100A000070BD0800FCE70000F0B583B0050000925F
:100A100001930AAB1C780BAB1F78002C26D003681F
:100A20005A7B944207D10123002B19D1002C3BD1D2
:100A3000200003B0F0BD002C0CD01A7B944209D8E2
:100A40001A6863001B19033BD3189B78002BEBD06B
:100A50000123E9E73E4B3F4A68213F4800F02EFE64
:100A60003E4B3F4A65213F4800F028FE03689C7BCF
:100A7000002CDBD012D01A7B94420FD862001219DE
:100A8000033A19688C46624451789973002900D161
:100A9000D9730023937053701370C7E72C4B2D4A02
:100AA00068212D4800F00AFE002C3AD02B681B7BF1
:100AB0009C4236D82C4BE3181B01AA689446634429
:100AC000009A1A60019A5A60089A9A60099ADA6044
:100AD0002E68002C2BD030D0337B9C422DD8630065
:100AE0001B19033B32689446634400229A705A7083
:100AF0001A70717B22003000FFF766FF707384422A
:100B000000D095E7287D009A019B00F08DFA061E23
:100B100001D0002F17D00C9B002B00D188E71E704E
:100B200086E7124B124A3B210E4800F0C7FD114BDD
:100B3000114AA521084800F0C1FD054B054A68216E
:100B4000054800F0BBFD2868210000F095FCE2E7B5
:100B5000005A0010185C00101C5A00108C5A00102B
:100B6000245C00109C590010FFFFFF0FCC590010AF
:100B7000C45B001098590010085C0010F0B5DE4608
:100B800057464E464546E0B58BB009900023089382
:100B90008200B24BD658370032E0B14BB14A3F2108
:100BA000B14800F08BFDB14BB14A3B21B14800F098
:100BB00085FDB14BB14A8C21AE4800F07FFDB04BB2
:100BC000AE4A9021AB4800F079FDA84BAD4A4021D8
:100BD000A84800F073FD2A686B68099800F024FAB1
:100BE00000239A4698467B68BFF35F8F00221A6005
:100BF00086F310884346002B51D1002800D126E10E
:100C000000F0BEF902000B1EC7DB00200021069099
:100C100007917868EFF3108672B601680029FCD05E
:100C2000BFF35F8F396888464C7B002C32D0BAD036
:100C3000097B8C42B7D8944965182D01B9688C4658
:100C4000654428686968801A99410029C3DC01D18C
:100C50000028C0D10021404600F004FCA042A8D1E9
:100C60002A686B6806920793AB689846EB689A46C9
:100C70004346002BA3D0002CA7D03B681B7B9C4293
:100C8000A3D8631EFA68D35C08931B02184338612B
:100C90000020A8E700239A4698460020A3E7089B77
:100CA0001B022343994651461800C04705000E0019
:100CB0007A68EFF3108B72B6136859424B41D9B280
:100CC000002BF9D1BFF35F8F002E26DB002E52DD03
:100CD0003B69002B53D04B4572D100F051F9020013
:100CE0000B1E73DB0100180052197341984202D8A1
:100CF00004D1914202D901225242D317002B6BDB5F
:100D00000021049101310391029451460191414621
:100D100000913800FFF778FE49E03B69002BD5D001
:100D20004B451CD1069A079B10001900521BB3417A
:100D3000994202D804D1904202D901225242D317DB
:100D4000002B12DB002104910131039102945146E2
:100D50000191414600913800FFF756FE27E04B4BCA
:100D6000464A9F21434800F0A9FC3D4B3D4A3F21A4
:100D70003D4800F0A3FC002E01D1002DA8D13A6817
:100D8000002C45D0537B9C422CD1012100293FD11E
:100D9000D37B002B42D1D473002C52D03B681B7BF9
:100DA0009C424ED8FA68013C135D01331355002371
:100DB0003B617A68BFF35F8F13608BF310881FE786
:100DC000324B2E4AA2212B4800F078FC244B254AB6
:100DD0003F21254800F072FC214B224A3F21224846
:100DE00000F06CFC002C0DD0137B9C420AD86300F1
:100DF0001B19033B1068844663449B78002BC5D0C5
:100E00000121C3E7224B234A6821234800F056FC06
:100E1000224B234AF621204800F050FC002B0AD038
:100E2000117B8B4207D85900CB18033B11688C46C5
:100E300063445C70AFE7164B164A6821164800F011
:100E40003DFC0A4B0F4A40210A4800F037FC0BB02A
:100E5000F0BCBB46B246A946A046F0BD3C0400200B
:100E6000B45A0010905B0010D05A0010CC590010FA
:100E7000C45B00109C5900100C5B0010A85B0010B4
:100E8000245B0010D05B0010FFFFFF0F305B0010F1
:100E9000005A0010185C00101C5A00106C5B001007
:100EA000E45B001010B50A4B5B68002B04D00A21EC
:100EB0000848FFF7D1FC10BD054C2300064A10215D
:100EC000206800F0EFF903212000FFF7CDFCEEE7EA
:100ED00014020020E8080020A908001070B5EFF304
:100EE00005833F2018401038EFF3108C72B6194B71
:100EF0001B68002BFBD0BFF35F8F012319008140DB
:100F0000154A5163154A12781400C440234214D084
:100F1000114B5C6A8300124D5B599C4206D38300DF
:100F2000104C1B598A430D490A7007E00A4A031DF9
:100F30009B0099589950002300E00023BFF35F8F76
:100F4000044A002111608CF31088002B00D09847D0
:100F500070BDC046280100D0004005406E09022047
:100F6000EC080020BC03002010B50100024A034831
:100F7000FFF728FA10BDC0463C5C00106C09022047
:100F8000044B5B6A034A906A1900536A9942F9D18B
:100F90007047C0460040054070B504000D00EFF3F7
:100FA000108672B61B4B1B68002BFBD0BFF35F8F04
:100FB000002D1CD02000FFF7C3FA174B83420BD043
:100FC00019002000FFF7C4FA01212000FFF7B0FA52
:100FD0000123A340114A1360A400114BE550BFF355
:100FE0005F8F0C4B00221A6086F3108870BDA20040
:100FF0000B4B0021D1500122A2400A490B789343A8
:101000000B7005492000FFF7CDFA00212000FFF703
:101010008FFAE4E7280100D0DD0E001038600540AB
:10102000BC0300206E090220F0B5DE4600B584B096
:101030000400150001921E000293FFF7A1FF039523
:101040008E4202D84ED185424CD9EFF3108B72B646
:10105000274B1B68002BFBD0BFF35F8F254A177807
:101060000125A540EBB23B431370234B5D63221D6A
:1010700092000199D150A2002049029850501B6A59
:101080002B4212D11C4B1B6C2B4208D00020BFF30B
:101090005F8F174B00221A608BF3108823E0184BE8
:1010A000184AC121184800F009FBFFF769FF8E427A
:1010B00014D802D1039B834210D80E4B1B78BB423D
:1010C0000ED00D4B1D625D631F2004400123A34021
:1010D0000E4A1360074B1F701E38D8E70020D6E772
:1010E0000120D4E7012004B080BCBB46F0BDC0465F
:1010F000280100D06E09022000400540EC080020C5
:10110000605C0010BC5C0010845C001080E200E0B9
:10111000EFF3108C72B60B4B1B68002BFBD0BFF3A8
:101120005F8F01238340084A136208490A789A4373
:101130000A70BFF35F8F034B00221A608CF3108894
:101140007047C046280100D0004005406E090220CB
:1011500010B500291ED0037B99421BD84B005B18A9
:10116000033B0468A4466344002919D0002A1DD01B
:10117000914221D0002A25D0047BA24222D80468C3
:1011800050008018033820188170197800291FD169
:101190001A7010BD104B114A6821114800F08EFAE8
:1011A000104B114A6F310E4800F088FA0F4B0E4A6F
:1011B00070210B4800F082FA0D4B0B4A7121084850
:1011C00000F07CFA044B054A6821054800F076FAE5
:1011D00041701A70DDE7C046005A0010BC5D001077
:1011E0001C5A00105C5A0010A85D0010685A0010CC
:1011F000745A001070B506000D001400002914D0B8
:10120000002A14D0806873689847002806D022000E
:1012100029003000FFF79CFF280007E02A0021008A
:101220003000FFF795FF200000E0100070BD0800BF
:10123000FCE7000010B50023437301338373037B85
:10124000C3730123027B9A4214D9002B0CD0027B7A
:10125000934209D85A00D218033A01688C46624476
:101260000133DBB25370EDE70B4B0C4A68210C489D
:1012700000F024FA002A09D0924207D801685300EE
:101280009A18033A8A180023537010BD024B034A80
:101290006821034800F012FA005A0010BC5D0010EB
:1012A0001C5A001010B5017342608360FFF7C2FF43
:1012B00010BD000070B50400081E00D170BD0029EB
:1012C00034D0237B994231D84B005B18033B226812
:1012D000944663445A78002AF0D02DD0237B9A425A
:1012E0002AD853009B18033B21688C4663445D78E1
:1012F00000215970002825D0237B984222D8430032
:101300001B18033B21688C4663440021597001007F
:101310002000FFF76FFF060029002000FFF7CAFF3B
:10132000020031002000FFF765FFC7E7084B094ABC
:101330006821094800F0C2F9054B064A68210648B1
:1013400000F0BCF9024B034A6821034800F0B6F9EB
:10135000005A0010BC5D00101C5A001070B505004A
:101360000C001600002928D02DD0037B99422AD8E2
:101370004B005B18033B0268944663445A78002A8A
:1013800027D19A78002A2AD11978FFF793FF030012
:10139000002E03D0EA7B002A27D1EC73002B37D133
:1013A000002C49D02B7B9C4246D82B6861000C193D
:1013B000033C1C190023637070BD224B224A382164
:1013C000224800F07BF9224B224A6821224800F093
:1013D00075F9224B1C4A3A211C4800F06FF9204B4A
:1013E000194A3B21194800F069F9002A0AD0297BE3
:1013F0008A4207D851008A18033A29688C46624409
:101400005470CAE7124B134A6821134800F056F98A
:10141000002B0BD02A7B934208D843001B18033BB8
:101420002A689446634400229A70B9E7084B094A37
:101430006821094800F042F9054B064A6821064830
:1014400000F03CF9D85C0010945D0010E05C0010E6
:10145000005A0010BC5D00101C5A0010105D0010F6
:10146000385D001070B504000A00457B2900FFF7C5
:1014700075FF6073280070BD70B50400002967D047
:10148000437B8B420ED0002911D0037B99420ED8AA
:101490004B005B18033B0268D0188378002B0CD1FB
:1014A000002056E00121FFF7DDFF012051E0294B2C
:1014B000294A6821294800F001F9002B20D0227B1D
:1014C00093421DD85A00D318033B2268D2182568CE
:1014D000EB5C8B421AD0002B1BD0227B934218D896
:1014E0005A00D318033B2268D21853788B4216D087
:1014F000002BF0D11A4B1B4A67211B4800F0DEF885
:10150000144B154A6821154800F0D8F84378137039
:1015100007E0104B104A6821104800F0CFF84378DC
:10152000537000238370437001222000FFF716FFE1
:101530000200617B814205D02000FFF75BFE6073F3
:10154000012006E0094B074A6D21074800F0B6F874
:10155000002070BD005A0010BC5D00101C5A001025
:10156000005900107C5D0010E05C00105C5D001014
:1015700010B50400FEF75AFF01002000FFF76CF9D8
:1015800001235B426360BFF35F8F10BD10B50400A1
:10159000FEF74CFF01002000FFF75EF901235B42DC
:1015A000636000232372BFF35F8F10BD70B504002A
:1015B0000D00062000F036FAC000290001F0F0FB13
:1015C000C60908D00E4B9E4217D87F231840013021
:1015D0003500460800E001256562A6622C348020B3
:1015E0008001044300232360062000F01BFA8000E2
:1015F000A901891901F0D4FB70BD0026014DEBE76C
:10160000FEFF0000FFFF0000002909D00A22064B60
:101610009C466044434258414000044BC2527047CC
:1016200080225200F3E7C0460080FCBFFC08002087
:1016300070B505000C00062000F0F4F9002829D050
:10164000164B9D4227D08022D203154B1A60154BB2
:101650001A60154B9B6811009943FAD100212800AC
:10166000FFF7D2FF21002800FFF7A0FF2C002C3449
:10167000E96A60224A406E211140802252012243D1
:1016800011600A4B2B6380239B01234310221A60B5
:101690000323AB6470BD80221204D6E700800340B0
:1016A00000E0004000F0004000C0004001030000E6
:1016B00000BEFDE710B5FFF7FBFF000010B582B0DC
:1016C0000C001900002A0CD0084B002A0BD0019204
:1016D000009323000200064802F08EFB0120FFF772
:1016E000E7FF044BF1E7034AF1E7C046585E0010FC
:1016F000685E0010645E001070B52B4B2B4A1A60B8
:101700002B4B2C4A1A602C4B9A682A4B9343FAD1E4
:101710002A4C01E008CC9847294B9C42FAD300F0B0
:1017200001F9234B274A1A60234B9B68DB43DB01FB
:10173000FAD1254B40229A675A671A67DA66234C1A
:1017400009E0234B234A83212348FFF7B7FF2000FA
:10175000FFF70EFF0834214B9C4209D22368002B6F
:10176000F5D0012BEDD12000FFF710FF0C34F2E78C
:101770001B4CA1681B4DC022280002F0FBF9A5609C
:10178000FEF771FD002800D000BEFEF73FFEFFF718
:1017900055F8FFF787FB144C01E008CC9847134B32
:1017A0009C42FAD370BDC04600E00040BFCDFBFEB6
:1017B00000F00040FE7F3C0000C000408802002096
:1017C00098020020FFFFFF0100F001407802002096
:1017D000985E0010045F0010B85E001088020020C0
:1017E00000ED00E00000002098020020A002002090
:1017F0000FB400B583B0084802F0CCFA049B002B6C
:1018000007D005A90191180002F0D4FA034802F0AC
:10181000C1FA0120FFF74CFFF05E0010005F0010DE
:10182000F8B5DE4657464E464546E0B505000F0082
:1018300092460A9A93424ED31A0E91461E020A9A73
:1018400000233000494601F0EDFA80466C0064192F
:10185000A4002F4B9C4664446368834200D26060BE
:101860002B1FDBB29B46012B3BD9C0239B0123439B
:10187000802212011A60AB00264A9958002905D02F
:10188000506901F08DFA01300138FDD153465A01FB
:1018900023685A40E0231A4080235B0123431A60E7
:1018A0005A46012A28D980239B0123438022120112
:1018B0001A6043466360424600233000494601F007
:1018C000B1FAAD00134B58510120F0BCBB46B246F3
:1018D000A946A046F8BD104B104A2D211048FFF72D
:1018E000EDFE012FC1D1C0239B01234303221A60C7
:1018F000A368DB07FCD5C9E72168794003220A40C9
:101900001A60A2680123BB401342FAD0CBE7C0465D
:1019100000800040CC030020145F0010645F0010C2
:10192000285F001030B583B00C2000F021F9FEF7DD
:1019300063FD00280DD0002304E099002D4A2E48B5
:1019400088500133092BF8D92A4B2C4A5A6203B02C
:1019500030BD2B4B00229A6700F012F9294B01226F
:101960001A60274B5B6C012BFBD1274B03221A60BB
:10197000234B9B6B012BFBD1013300930433234A90
:101980000121234800F054F805230093214A012146
:10199000214800F04DF8214B009300220221042041
:1019A000FFF73EFF1E4D00952B0000220121052070
:1019B000FFF736FF104C009423000022002107207F
:1019C000FFF72EFF00942300002200210820FFF7DC
:1019D00027FF0A4B00932300002200210920FFF774
:1019E0001FFF00952B00002200210620FFF718FFA3
:1019F000ADE7C046CC030020006CDC021BB7000042
:101A0000008000403CB0004030B00040002F6859DA
:101A100000800240008C864700C00240001BB700D7
:101A2000405973078000014BC0587047CC03002019
:101A3000F0B5C64600B504000F0090461D000C200E
:101A400001F0AEF906003D4A42443D4B9A4243D86C
:101A500043011B1A9901C91AC90009188901404696
:101A600001F09EF90200103A98235B009A4239D89F
:101A70006B1E062B3CD8069B013B062B38D8069BD9
:101A80009D423BD343461A09B2423DD32D04069BE7
:101A90001E0335432368002B3CDB2A4B9C424AD073
:101AA00080225201284B1A60284B1A60284B9B68F1
:101AB00011009943FAD12760A060231DC022920132
:101AC0001A43212313602368002BFCDAE560082306
:101AD000136080BCB846F0BD1E4B1F4A11211F4841
:101AE000FFF7ECFD1E4B1C4A19211C48FFF7E6FDD1
:101AF0001C4B194A1C211948FFF7E0FD1A4B164AE6
:101B000022211648FFF7DAFD184B134A2521134806
:101B1000FFF7D4FD22683F231340BB42BDD1A36829
:101B20001B051B0D8342B8D1E368EE22D20213409D
:101B3000AB42B2D1CDE780229201B3E780E84BD32C
:101B400080F8A93200C0024000E0004000F00040F0
:101B500000C00040745F0010A4600010D45F00104B
:101B60000860001024600010706000108860001091
:101B700080239B000343014AD362704700800540E5
:101B8000064BAA2212011A602F22DA60044B054A82
:101B90001A60024B5B68002BFBDA70470040024082
:101BA0000060024000B0FA00704710B5002802D073
:101BB0000B684968984710BD0100002007E08300CA
:101BC0001B185B00501C08601078C01830380A6879
:101BD0001378303BDBB2092BF1D97047F0B5DE4604
:101BE00057464E464546E0B583B093461F000C9BD2
:101BF0009A460D9C0E9B99460F9B9B0703D0B846B7
:101C00000F00060022E00192A34688464E46B946E0
:101C10000700B44207D2551C4B4641462020B84726
:101C200001342A00F5E73D004F465C46019B9B4688
:101C3000B1464646B84637002E0007E0013C551C29
:101C40005346185D43463900B0472A00002CF5D1B1
:101C500035003E0047460F9B9B0707D4100003B09A
:101C6000F0BCBB46B246A946A046F0BDB0464E46C3
:101C7000B9462F005D46531BB342EFD2541C4B466E
:101C800041462020B8472200F5E7F0B5CE4647464A
:101C900080B585B0944698460C9D0D9C0EAB1B7884
:101CA0009946109A119B129EB7071CD4002B0CD09A
:101CB000F7070AD54F46002F02D10C37374204D020
:101CC000013B02E030272F550134944201D21F2CF2
:101CD000F8D9F70707D59C4205D21F2C03D8302727
:101CE0002F550134F5E7F70615D5770505D4002CF7
:101CF00003D0944224D09C4222D00F9A102A2BD099
:101D00000F9A102A30D00F9A022A35D01F2C02D8F1
:101D100030222A5501341F2C05D84A46002A31D0DA
:101D20002D222A55013403960293019400954346CF
:101D30006246FFF753FF05B0C0BCB946B046F0BDE0
:101D4000621E012C06D00F9F102F01D01400D4E783
:101D5000023CD2E71400D0E7B206D1D41F2CCFD872
:101D600078222A550134D1E7B206CCD51F2CCAD827
:101D700058222A550134C9E71F2CC7D860322A558A
:101D80000134C3E7720703D52B222A550134CAE771
:101D90003207C8D520222A550134C4E7F0B5DE4603
:101DA00057464E464546E0B593B081468A4608926E
:101DB00009931CAB10CB1B789B461E9D219B98461C
:101DC000002C03D1102342469A4390468023DB0027
:101DD00046461E4042461A4212D0002C22D000260F
:101DE0000EE03033D9B2771C0AAB99552900200098
:101DF00000F0D6FFAC4216D31F2F14D83E000400CB
:101E00002900200000F0CCFFCBB2092BE9D94246D3
:101E1000920605D54121C918C9B20A39C9B2E2E70B
:101E20006121F8E7270043460693209B05931F9BFB
:101E3000049303955B46029301970AAB0093099BB9
:101E4000089A51464846FFF720FF13B0F0BCBB4646
:101E5000B246A946A046F0BDF0B5DE4657464E460E
:101E60004546E0B595B0089009910A920B931E9EE5
:101E70001F9C20AB1B789B46229B9946239D269B4B
:101E80009A463300234303D1103352469A43924675
:101E90008023DB0057461F4052461A4219D03300B8
:101EA00023432DD0002714E03033DAB27B1C984650
:101EB0000CABDA554A462B003000210000F0B2FF8F
:101EC000A5421FD819D043461F2B1BD847460600F2
:101ED0000C004A462B003000210000F0A3FFD3B2D3
:101EE000092BE1D95246920605D54122D218D2B229
:101EF0000A3AD2B2DAE76122F8E7B145E3D901E064
:101F00000023984653460693259B0593249B0493F0
:101F10004B4603935B460293434601930CAB0093FD
:101F20000B9B0A9A09990898FFF7AFFE15B0F0BC11
:101F3000BB46B246A946A046F0BD0000F0B5DE465D
:101F400057464E464546E0B591B083468A460C92C8
:101F500098461A9C08941B9D099522002B0020008E
:101F6000290001F0EEF9002800D0E5E001225242FC
:101F7000D74B2000290001F0DFF9002800D0DBE07A
:101F800001225242D34B2000290001F0BFF9002862
:101F900000D0D1E000220023089E3000099D2900D6
:101FA00001F0B4F9002800D0DDE008980999069006
:101FB00007918023DB001E9A1A400D921E9A1A4246
:101FC00001D106231C930698079904000D000A000E
:101FD0000600024300D1D1E0080D4005400DBE4C83
:101FE000A44660440A03120BBC4B13431F0001F0CC
:101FF000BBF9BB4ABB4B01F046F9BB4ABB4B01F0F6
:102000001BF904000D000022B94B3000390001F02B
:102010000AF9B84AB84B01F036F902000B0020006B
:10202000290001F009F901F0B7F9814601F09CF9A6
:1020300004000D00B14AB24B01F025F90022B14B6A
:1020400001F0FAF801F0A8F90600AF4AAF4B200002
:10205000290001F018F904000D00300001F084F9A6
:10206000AB4AAC4B01F00FF902000B002000290035
:1020700001F0D9F804000D0002000B0001F003F993
:102080000A900B91A44BF31800261F0522002B0089
:102090002000290001F0D0F80E900F9122002B00B3
:1020A00000208021C90501F0BEF804000D000022C7
:1020B0009A4B0A980B9901F0C8F80022984B01F04E
:1020C000BBF802000B000A980B9901F0BEF8002241
:1020D000944B01F0B1F802000B000A980B9901F043
:1020E000B4F802000B002000290001F0A5F802005E
:1020F0000B000E980F9901F0A8F80022774B01F021
:102100009BF832003B0001F0BEF806000F0004000F
:102110000D00069A079B01F00FF9002830D001232B
:102120005B429C46E14400227D4B3000390001F0C7
:102130008CF804000D0023E01E9B04931D9B039369
:102140001C9B0293089A099B0092019343460C9AA8
:102150005146584600F0FCF811B0F0BCBB46B24600
:10216000A946A046F0BD00230024069307940696D6
:1021700080231B069C46654407951AE70023994671
:102180004B466333C62B1ED804261E9B1B0526D543
:102190002B0023430FD0644A644B0698079901F043
:1021A000C3F8002879D00022614B0698079901F006
:1021B000ADF8002871D01C9B4B4506DD4A46981AA5
:1021C000431E1C9303E00526DFE700231C938023B6
:1021D000DB001E9A1A431E920026002399461D9B7F
:1021E0009E4264D29F1B02231E9A1A400A921E9A94
:1021F000134202D0002E00D000274B46002B07D000
:1022000022002B000698079901F01FF8069007910D
:10221000002200230898099901F078F8002848D195
:10222000444B1E9A1340049303971C9B0293069BF6
:10223000079C0093019443460C9A5146584600F07F
:1022400087F8002E00D187E71E9B9B063DD54525CC
:10225000441C4346020051462800D8474B46DA1733
:102260009B18534005220592013E049600220392DA
:102270000A3202924A46D00F019000934346220050
:1022800051465846FFF78AFD0A9B002B00D163E7B1
:1022900002005F460C9E1D9D54E01C9B002B9ED0AF
:1022A0000D9B002B9BD01C9B013B1C9397E70027A9
:1022B00099E7069C079D220029008020000684469D
:1022C00061440B0006920793AAE76525C0E7C04664
:1022D000FFFFEF7FFFFFEFFF01FCFFFF0000F03F7C
:1022E000FB799F501344D33FB3C8608B288AC63F05
:1022F0000000F83F61436F63A787D23F71A379095C
:102300004F930A400000E03F1655B5BBB16B024049
:10231000EF39FAFE422EE63FFF03000000002C409A
:1023200000002440000018402D431CEBE2361A3F09
:1023300080842E41FFF7FFFF541C43465146202066
:10234000B8472200931BAB42F6D3100004E7C04607
:10235000F0B5DE4657464E464546E0B595B0069088
:10236000079193469946209F1E9A1F9B10001900C3
:1023700000F0E7FF002831D101225242BF4B1E98E6
:102380001F9900F0C3FF002837D101225242BC4BF5
:102390001E981F9900F0D0FF00283DD10022B94BB4
:1023A0001E981F9900F0C8FF002850D10022B64B9C
:1023B0001E981F9900F0AAFF002848D10022002390
:1023C0001E981F9900F0A2FF002850D100239846C4
:1023D000229B5B0500D4B6E0002458E0229B0393C7
:1023E000219B029303230193A84B00934B465A462B
:1023F00007990698FFF7F2FB0EE1229B0393219BBE
:10240000029304230193A24B00934B465A4607992B
:102410000698FFF7E3FBFFE00423229A1A40229973
:102420000B4210D09B4B002A0FD00422229903911B
:1024300021990291019200934B465A4607990698BA
:10244000FFF7CCFBE8E0944BEDE70322EEE7229B9D
:102450000493219B039302971E9B1F9C009301945E
:102460004B465A4607990698FFF768FDD4E01E9A36
:102470001F9B0020002100F0D6FE1E901F9101231B
:102480009846A5E70CAB30221A55013F01341F2CAA
:1024900001D8092FF6D81E981F9900F07DFF05007E
:1024A00000F062FF02000B001E981F9900F0BBFEB7
:1024B000FA007A4B9B181A685B680A920B9300F03B
:1024C000E2FE0890099100F08BFF060000F048FF43
:1024D00002000B000898099900F0A5FE08900991E8
:1024E00000226F4B00F028FF00282ED0013630006C
:1024F00000F036FF02000B000A980B9900F00CFF69
:10250000002801D001350026002F2CD1280000F032
:102510002BFF02000B001E981F9900F084FE06009E
:102520000F0000225E4B00F0F1FE002846D1002291
:102530005B4B3000390000F0FFFE00283ED1EB0776
:102540003CD501353AE0062746E70022544B08986F
:10255000099900F0DBFE0028D6D1002E01D0F30748
:10256000D2D50136D0E7AA461F2C11D8013F0A2147
:10257000300000F015FC651C30310CAB19550A21F8
:10258000300000F00DFC092E0ED906002C00EBE700
:1025900055461F2C0CD87B1E002F09D00CAA3021C9
:1025A00011551F000134F4E72B0055461C00F0E7DD
:1025B0001F2C03D80CAB2E221A5501341F2C10D817
:1025C0000A21280000F0C4FB661C30310CAB195501
:1025D0000A21280000F0BCFB051E01D03400EDE705
:1025E00034000323229A1340012B1CD01F2C06D841
:1025F0004346002B32D00CAB2D221A550134229BBE
:102600000393219B029301940CAB00934B465A46D3
:1026100007990698FFF7E2FA15B0F0BCBB46B24640
:10262000A946A046F0BD219B002B13D04346002BAA
:1026300002D10C3313420FD0219B013B219319008F
:1026400003E00CAB30221A5501348C42CED21F2C41
:10265000F7D9CBE72199F8E72199F6E7229B5B07A9
:1026600004D50CAB2B221A550134C8E7229B1B075B
:10267000C5D50CAB20221A550134C0E7FFFFEFFF90
:10268000FFFFEF7F65CDCD4165CDCDC1BC600010B2
:10269000C0600010B4600010B0600010A8620010AC
:1026A0000000E03FF0B5DE4657464E464546E0B5F1
:1026B00093B082468B4690461193002900D1EBE2FD
:1026C00000275546119B1878002800D1E7E22528FD
:1026D00009D07C1C43463A005946A847119B013358
:1026E00011932700EEE7013311930024119A11781A
:1026F0000B00203BD8B2102803D88300D048C35821
:102700009F460B00303BDBB2092B2CD92A292FD056
:1027100000230A93119B1A782E2A39D000239A4657
:10272000119A1378683BD9B2122976D88B00C54923
:10273000CB589F4601231C4301321192D6E7022356
:102740001C4301321192D1E704231C430132119240
:10275000CCE708231C4301321192C7E710231C4326
:1027600001321192C2E711A8FFF726FA0A90D1E7C9
:102770001C9B1A1D1C921868002804DB0A90119BF0
:1027800001331193C6E702231C4343420A93F6E741
:102790008022D20014435A1C11925A781300303B05
:1027A000DBB2092B04D92A2A07D000239A46B7E7BF
:1027B00011A8FFF701FA8246B2E71C9B1A1D1C9272
:1027C0001868002804DB8246119B01331193A7E7A8
:1027D0000020F8E780235B002343511C11915278BD
:1027E0006C2A01D01C0018E0C0239B001C4301315F
:1027F000119112E080232343511C11915278682AD1
:1028000001D01C0009E0C0231C430131119104E0F8
:1028100080235B001C4301321192119B1878030046
:10282000253BDAB2532A00D92CE29300864AD358CA
:102830009F4680239B001C4301321192EDE78023C9
:102840005B001C4301321192E7E7782809D0582831
:1028500038D06F2838D0622838D010239C430A26FD
:1028600000E01026582833D0692803D0642801D00E
:102870000C229443630501D50122944369282AD090
:10288000642828D0A30500D59FE0E30500D5B8E073
:10289000630600D4CAE01C9A111D1C911168FF2226
:1028A0000A4005940A9B049353460393029600231F
:1028B0000193009243463A0059462800FFF76EFA0A
:1028C000070027E01026CDE70826CBE70226C9E758
:1028D00020221443C8E7A30520D4E30550D463069F
:1028E00066D51C9A111D1C911168FF220A40D3174E
:1028F000D118594005940A9B0493534603930296BA
:10290000D20F0192009143463A0059462800FFF742
:1029100045FA0700119B01331193D3E61C9BDA1D86
:1029200007218A43110008311C91116853689C46A5
:10293000DB170C930D930C9A0D9B100048400E90E2
:10294000624653400F930E980F990C9A0D9B801A74
:1029500099410E900F9108940A9B07935346069352
:102960000496002305936346DA0F029200900191CA
:1029700043463A0059462800FFF76EFA0700C9E7B8
:102980001C9A111D1C911268D317D1185940059437
:102990000A9B0493534603930296D20F019200912F
:1029A00043463A0059462800FFF7F8F90700B1E717
:1029B000230605D51C9A111D1C910023D25E96E7B3
:1029C0001C9A111D1C91126891E71C9BDA1D0721AE
:1029D0008A43110008311C9108940A9B07935346BF
:1029E000069304960023059302931368546800939A
:1029F000019443463A0059462800FFF72DFA070094
:102A000088E71C9A111D1C9105940A9B0493534658
:102A100003930296002301931368009343463A0000
:102A200059462800FFF7BAF9070073E723060DD5CA
:102A30001C9A111D1C9112681204120C31E7C04639
:102A4000C86000100C610010586100101C9A111D24
:102A50001C91126825E746281AD01C9B07330722D1
:102A600093431A0008321C9204940A9A0392524625
:102A700002925C681B680093019443463A005946F1
:102A80002800FFF765FC0700119B0133119319E63D
:102A900020231C43E1E7672801D0472802D1802387
:102AA0001B011C43452801D0472801D120231C438A
:102AB0001C9B0733072293431A0008321C9204948C
:102AC0000A9A0392524602925C681B680093019432
:102AD00043463A0059462800FFF730FA0700119B99
:102AE00001331193EEE502231A002240924623425D
:102AF0001FD001241C9B1A1D1C927A1C9146187829
:102B000043463A005946A8475346002B16D1119B1D
:102B1000013311934F46D5E5561C434659462020B4
:102B2000B847230032005C1C9D42F5D83D001700D9
:102B3000E0E701233A002F000A9DF4E74A46A94640
:102B40000A9D06E0571C434659462020C8473400DA
:102B50003A00661CA542F5D84D469146D7E71C9B26
:102B60001A1D1C921B6899465346002B00D1013B4D
:102B70004E4601E0013613003278002A02D05A1E78
:102B8000002BF7D14B46F21A10928023DB0026006F
:102B90001E401C4203D0524501D9534610930223D4
:102BA0001A0022400B92234205D03A0037004C46CF
:102BB000A946554620E03A00109B5F46B3462E00DA
:102BC00006E0551C434639002020B04723002A0068
:102BD0005C1C0A999942F4D835005E46BB461094B5
:102BE00037004C46A946554606E01D000134561CE8
:102BF00043465946C84732002078002804D0002FA9
:102C0000F4D06B1E002DF0D117004D460B9B002B0E
:102C100003D1119B0133119354E50A9F109B06E0E9
:102C2000561C434659462020A847230032005C1C0E
:102C30009F42F5D81700ECE721231C431C9B1A1D6B
:102C40001C921B6800930594082304935346039336
:102C5000102302930023019343463A00594628006B
:102C6000FFF79CF80700119B013311932AE57C1CA8
:102C700043463A0059462520A847119B013311933A
:102C800027001FE57C1C43463A005946A847119B84
:102C900001331193270015E50A4B9A4610E5AA4621
:102CA000474502D343465A1E00E03A004346594680
:102CB0000020D047380013B0F0BCBB46B246A9464E
:102CC000A046F0BDA91B001000B585B0029003918D
:102CD0000121009313004A4202A90248FFF7E2FCD7
:102CE00005B000BDAB1B001001480421014B184783
:102CF00040020020192D001010B5010018231B8878
:102D000014221088984710BD10B5010018231B88A5
:102D100016221088984710BDF0B5C64600B50700CA
:102D20000E0000250123984600E00135B5420AD285
:102D3000AC003C192068FFF7DFFF20600028F4D1C9
:102D400000239846F1E7404680BCB846F0BD00003D
:102D5000124A936F9B0815D29066D166002905D060
:102D6000FFE7FFE7FFE7516F106F704704B5802161
:102D70000906C2175140002800D0C84302F07CFC6D
:102D8000002104BDF0B5146E556E576F166FFFF736
:102D9000E3FF1466556657671667F0BD000000D064
:102DA000114A936F9B0813D210665166002905D013
:102DB000FFE7FFE7FFE7516F106F704704B500288A
:102DC00001D00020C04302F057FC002104BDC046E2
:102DD000F0B5146E556E576F166FFFF7E5FF14666A
:102DE000556657671667F0BD000000D094464E4AFE
:102DF000926F9208624601D230E0C046F0B54A4E6A
:102E0000B56F6D08FCD3346E756E776F366F00F05A
:102E100025F89446444A1466556657671667624615
:102E2000F0BDC0469446404A926F9208624601D275
:102E300058E0C046F0B53C4EB56F6D08FCD3346E1B
:102E4000756E776F366F00F04DF89446364A14660B
:102E50005566576716676246F0BDC046002B24DBF7
:102E600011D000293EDA00B5C943404200D10131FA
:102E700000F038F8C943404200D10131DB435242EF
:102E800000D1013300BD002AEBD1002801D1002977
:102E900005D00020C90FC90701D1C043410800B5C2
:102EA00002F0E2FB0022002300BD00B500290ADB8E
:102EB000DB43524200D1013300F014F8C9434042D1
:102EC00000D1013100BDC943404200D10131DB4393
:102ED000524200D1013300F005F8DB43524200D1E9
:102EE000013300BD002923D1002B18D1002A0CD0BA
:102EF000BC460D4F38667A6600210023FFE7FFE7E6
:102F0000FFE77A6F386F67467047002801D007489F
:102F1000010000B502F0A8FB0022002300BD020062
:102F20000B00002000217047000000D0FFFFFFFFD2
:102F3000002B00D0BFE0130C28D1002AE7D080B4CA
:102F4000114F39667A66FFE7FFE730B4040C7B6FF8
:102F5000396F1B0423433B667A66FFE7FFE7FFE711
:102F6000C04684B27B6F3D6F1B0423433B667A6689
:102F7000FFE7FFE7C04600232C042D0C7A6F386F63
:102F800000196941B0BC7047000000D0F0B594460C
:102F90000025140E01D112020835140F01D11201BF
:102FA0000435940F01D192000235D40F01D15200A3
:102FB0000135D40B0134254F7C66254C3C660E0C44
:102FC00093B2FFE7FFE7FFE73C6F6643360C7703FA
:102FD000BE467343DF0B5B04C01AB941130C734345
:102FE000DB18C91ACE086643360CB64493B2734355
:102FF0001F0F1B01C01AB941130C73431F0B1B0594
:10300000C01AB941860D8F023E436643360C092D26
:1030100024DB520A7243801A7703460A6643360C51
:1030200016235B1BDE40DF40BF1964466643821BEC
:103030007046043506330100D940A840C01900D3BA
:103040000131A24206D20023F0BD0000000000D0F2
:10305000FFFFFFFF121B0130F3D3F1E709277F1BAE
:10306000FE406446A2B27243801A00D20139220C9B
:103070007243130C1204821A99410B0070460435F6
:1030800013370100F940A840801900D30131002B0B
:1030900002D1A2420AD2F0BD013000D30131121B8D
:1030A000FAD2013BF8D1A24200D2F0BD013000D3E8
:1030B0000131121BF7E7F0B51C0C00D080E00CB416
:1030C00000251C0A04D11B02160E334312020835D8
:1030D0001C0B04D11B01160F3343120104359C0B4A
:1030E00004D19B00960F334392000235DC0B02D1D2
:1030F00092185B4101351C00971864410134464F1A
:103100007C66464C3C660E0CFFE7FFE7FFE7C046D7
:103110003C6F6643360C7703BE4697B27743C01BBD
:1031200000D20139C01B00D201399FB27743C91BBD
:10313000C91B170C77437E04FF0B801BB941CE08D7
:103140006643360C0C2D33DBB644120B1F053A4395
:103150001B0B97B27743C01B00D201399FB2774354
:10316000C91B170C77433E043F0C801BB941860DE9
:103170008F023E43664329277F1BFE400C3D774666
:10318000AF40BF1930BCA2B2ABB272437343801AD6
:103190009941220C7243130C1204801A99410200C7
:1031A0000B000137001BA941F9D2781E0021F0BDA8
:1031B0000C277F1BFE4077467F0BAF40FF19E0E7EF
:1031C00000245D1C07D0144F7D663966FFE7FFE7DA
:1031D000FFE7FFE73C6F95B29EB265436643401B35
:1031E000B141150C1E0C6543664336042F0C3E435B
:1031F0002D04401BB141994204D202000B00200073
:103200000021F0BD01D19042F7D3801A99410134D9
:103210009942F2D3F6E70000000000D0FFFFFFFF65
:1032200048404140484018B41B4B5B68FC46019342
:1032300008BD04DFFB34001018B4174B1B68FC46B4
:10324000019308BD00DF053500109446134A926FC4
:10325000920809D2624618B40F4BDB68FC46019312
:1032600008BD0CDFBD3700100C4AF0B5146E556E6A
:10327000576F166F6246FFF7EEFF084A14665566F1
:1032800057671667F0BD18B4034B9B68FC46019363
:1032900008BD08DF61360010E4060020000000D001
:1032A000FFB550404240504059404B40594000E02B
:1032B000FFB5154F4C00640D03D0BC4204D10C0384
:1032C00014D80020090D09055C00640D03D0BC4230
:1032D00004D11C030AD800221B0D1B0501264B40FC
:1032E00009D44B4003D58B4200D18242FFBD9942A5
:1032F000FCD19042FFBD0B43DB1803431343F5D0D1
:10330000C9434918FFBD0000FF07000000B5FFF7E3
:10331000CFFF804100BDC04600B5FFF7C9FF01D90E
:10332000002000BD012000BD00B5FFF7B9FF01D9A5
:10333000002000BD012000BD00B5FFF7B1FF8041B6
:1033400000BD012040054A00121804D85A00121886
:1033500001D800207047012070470020704700000E
:103360000021002805D17047C1174840401AFAD003
:10337000C90713B5064B1B6898470CBC441CA240F8
:103380001005120B0349091B09051943114310BD10
:10339000E40700201F04000010B54C00620D8023DC
:1033A000D218DB00D21A5B057E2A10DD9E3A13DAB2
:1033B000CC170903490819435242D1406400013433
:1033C0001532202A05DAD0400843604310BD0020A2
:1033D00010BD0846604310BDC80FC018013810BDAD
:1033E00018B4044B5B6AFC46019308BD24DF6D39B9
:1033F00000100000E406002070B513231C78012C97
:1034000014D0012C14DC022C02DC1F4A1F4B9A64DE
:103410001F48FFF771FC1F4B186070BD99001A48D8
:103420001A4A885001331F2BF8D9EAE70023FAE73C
:103430001948FFF769FC05001848FFF765FC0238DA
:1034400003789B007F2B19DD802229000F4800F0B4
:1034500091FB022CD7D1124B1A88B5231B029A423A
:1034600009D1104B1A88104B9A4204D10F4B1A887D
:103470000F4B9A42C7D00020FEF7BAF90D4B0E4A07
:1034800032210E48FEF71AF9C1340010E40600207C
:103490004C330000E4070020534400005346000072
:1034A00054380000D8380000494600009C3800001D
:1034B00059460000F862001098630010586300102D
:1034C00007B56046002800D100BE01880A0A023014
:1034D000DF2AFAD1C9B2820804D3028840880004E6
:1034E000104300E00068024A5050039007BD0000FE
:1034F000E40600200FB403BC0CBCF0B50124E407C3
:10350000634000E0F0B50C0DCF0F661E3605891B39
:10351000640503D3C943404200D30131640D03D095
:10352000661CF60A07D0E41B00207F00791C89077F
:103530008912803C24031D0DDF0F6E1E36059B1B78
:103540006D0503D3DB43524200D301336D0D03D02D
:103550006E1CF60A07D0ED1B00227F007B1C9B0728
:103560009B12803D2D032F1B661B58D4A446202E92
:1035700046DA20371400BC401D00BD40F240334104
:103580002A4380185941CB0F05D0C943C0430022BC
:1035900064425041514162464D0D28D10D0D07D175
:1035A00000281FD0241940414941013A0D0DF9D09E
:1035B000640006D3013000D30131002C01D1400852
:1035C0004000013A0BD4941CE40A04D112051144C2
:1035D000DB071944F0BDD907204B194300E0D90798
:1035E0000020F0BD0029DDD1002CDBD1F0BD01327F
:1035F000C6074008CD0728434908002EE1D0D9E787
:103600003C2E29DA203E40371400BC4000D0012473
:10361000F24014431A00BB401C43D317ACE7AC463E
:10362000202F08DA20360400B4400D00B540F840E1
:1036300039412843A5E73C2F0CDA203F40360400EF
:10364000B44000D00124F84004430800B1400C43CA
:10365000C117EAE710001900002494E70000F07F8A
:10366000F0B50C0D661E3605891BE60A6405640D6F
:1036700002D0651CED0A04D0002001210905803C20
:103680002403A4461C0D671E3F05DB1BE70A6405E7
:10369000640D02D0651CED0A04D0002201231B0535
:1036A000803C24037740644497B484B296B2744358
:1036B000070C7E43150C6F4380B26843361802D363
:1036C000012000043F183004350C00197D41844668
:1036D00088B29AB250430C0C62431F0C7C438EB2EA
:1036E0007E43921902D301263604A4191604170C3E
:1036F0003618674101BC81B29AB25143040C62434F
:103700001B0C5C4380B25843121802D30120000402
:1037100024181004130C401863412D185E4100203A
:10372000474106BC88B293B258430C0C6343120C59
:10373000544389B251435B1802D301210904641830
:1037400019041A0C091862416D18564100204741AE
:1037500018BCF902720D1143F0026A0D1043ED021C
:103760000A0D03D16D1940414941013B124E9B1B8B
:103770007600B3420ED26D0007D3013000267141AE
:103780006646354301D1400840001B05C918E407CF
:103790002144F0BD0BDA013306D1013004D10131EF
:1037A0004F0D01D04908F2E7E1070020F0BD0136D6
:1037B00031050020EBE70000FF030000F0B51C0D11
:1037C000671E3F05DB1BE70A6405640D02D0661C1B
:1037D000F60A04D0002201231B05803C2403D025D7
:1037E0002D060026F6432E661E096E66CE0FF619CC
:1037F000B44649004F0D02D07E1CF60A03D00020CB
:103800000021403F3F033E1BB600B444013F7F050B
:10381000C91B49082E6F013676089C02950D254379
:103820007543ED137543AD1301356D10F603761B2B
:103830000CB4CC02450D2C43A2B2B3B25A43270CB0
:103840007B43350C6F43A4B26C431B1902D3012494
:1038500024043F191C041D0CA4187D4124196D413A
:10386000009A91B2ACB26143170C7C432B0C5F43BE
:1038700092B25A43A41802D301221204BF182204A0
:10388000230C52187B41019C6C431B19520ED90129
:103890000A434401A01A81B2B2B2514303145A43FD
:1038A000360C734387B27743D617D21900277E416F
:1038B00036049B191704160C7F185E417316ED1819
:1038C000F301002680337541A90F06D16400690A0F
:1038D000E8055B0A184309D22FE0042294448033A0
:1038E0007541A90AA8059B0A184326D340414941BE
:1038F0002404009A019B0D005543641B4343E41AC2
:1039000095B286B27543170C7E43030C5F4392B2A7
:103910005A43B61802D301221204BF183204330CE2
:1039200052197B4152429C41002C02D400220130AA
:1039300051414008CA071043490802B06246D70700
:103940009210084BD218084B9A4203D212058918DC
:10395000C919F0BD0020002A01DC3900F0BD013397
:103960001905F5E7FD030000FE070000002200B581
:10397000203200F004F8080000BD000000220B1502
:103980000AD410B5944600F031F81414013400DA6A
:103990000021CB17144C20470020002170476244BF
:1039A000343A0CD40C2A07DA040091409040524279
:1039B0002032D440214310BDD843D94310BD20321A
:1039C00007D40C469440524220321141D04020434B
:1039D00010BD0800C917203203D4524220321041D2
:1039E00010BD1800190010BD9F3900100A0DCC0F32
:1039F000531E1B05C91A520503D3C943404200D3C5
:103A00000131520D03D0531CDB0A07D0121B0020DA
:103A10006400611C89078912803A1203014BD21A93
:103A200070470000FF03000070B513231D782A487B
:103A3000FFF76AF90400012D11D0012D09DDA31E45
:103A40001B789B007F2B40DD80222100234800F063
:103A500091F82348FFF750F9224B186070BD5422AB
:103A600001001E4800F086F81F4B1A881F4B9A422F
:103A70001CD1A7239B011A881D4B9A4216D11D4BBE
:103A80001A881D4B9A4211D11C4B1A8894239B0112
:103A90009A420BD11A4B1A881A4B9A4206D11A4BEA
:103AA0001A681A4B9A4201D1152307E01848FDF70E
:103AB0009FFE99001748094A885001331F2BF8D9F7
:103AC000144A064B1A62DA61B7E7134B134A4221D4
:103AD0001348FDF7F3FDC04653460000E8070020F9
:103AE0004C330000E4070020EE290000C40F000062
:103AF000C20D0000962B0000C0B50000182B00007E
:103B0000CC2A000010B50000FC2C000051ED8764A9
:103B1000645E0010253B0010AC6300101C640010B4
:103B2000E063001007B56046002800D100BE0188A0
:103B30000A0A0230DF2AFAD1C9B2820804D3028805
:103B400040880004104300E00068024A505003908F
:103B500007BD0000E807002001480421014B184779
:103B600050020020192D0010014B1B68184700005F
:103B700050020020014B5B681847000050020020F3
:103B800010B50300080011001B68984710BD000025
:103B9000F8B507000D001600437C002B02D000246E
:103BA00000200CE003681100280098472DE03B7CC2
:103BB00010E0022115483B689847601C0134B4426C
:103BC00014DA002CF3DD2B19013B1B780D3B5A4214
:103BD0005341DBB22A5D0A2AF0D1002BEED1A0427C
:103BE000E7DA211A28183B689847E2E7B04203DA7F
:103BF000311A28183B689847002E06DDAD19013DA3
:103C00002B780D3B5A4253413B74F8BD946400102D
:103C100070B505000368002B16D00C4B1C6805E03E
:103C2000290004C92000FFF7B3FFE468002C09D085
:103C30002368002BF9D0064B1B68002BF0D0A34261
:103C4000F3D1EDE700232B6070BDC04634040020A3
:103C50003804002070B505000C000B68802B05D0DF
:103C600021684B1C23606418257170BD0800FFF7A4
:103C7000CFFFF5E710B582B000F0B2F9040001A95A
:103C8000064801F001FD002806D1019BA34203D0A4
:103C9000024801F001FD012002B010BD80020020A9
:103CA00010B5024801F0D8FC10BDC04680020020CB
:103CB000F0B5CE46474680B583B006000D0090466D
:103CC0001C00FFF7D7FF81466B1C05D0002C08D0E5
:103CD000194F1A4B1C6807E0300001F08BFC0500FF
:103CE000F4E7174FF5E7E468002C17D02368002BA2
:103CF000F9D0144B1B68002B01D0A342F3D12A004A
:103D000031002000B8474346002BECD06B46D91D4C
:103D10000A230B7001222000B847E4E74B46002B32
:103D200007D16B1E9D41E8B203B0C0BCB946B04696
:103D3000F0BDFFF7B5FFF4E7813B0010340400202D
:103D4000913B001038040020094A01E00C331A00AE
:103D50001368002B08D08342F8D1002907D1C3682B
:103D600013600023C36002E0002900D01060704798
:103D70003404002010B5064B1C6801E09847E46845
:103D8000002C03D06368002BF8D1F8E710BDC046C3
:103D90003404002070B5050001F02CFC0400002361
:103DA000012201002800FFF783FFFFF7E3FF200057
:103DB00070BD000070B5A2B004000E00FFF75AFFFE
:103DC00005008422002101A8FFF7CEFE3300220067
:103DD00001A90848FEF778FF040001A8FFF718FFC3
:103DE000FFF7C8FF002D02D1200022B070BDFFF701
:103DF00057FFF9E7553C00100FB400B583B004A994
:103E000001C90191FFF7D6FF03B008BC04B0184701
:103E100010B500F085F810BDF0B583B005000E00B8
:103E200000240FE06B46D91D0D230B7000200028E5
:103E300016D193699B06FCD40B78136001300131D5
:103E4000F5E70134B44219DA0D4B1A682F5D0D4BBA
:103E5000D31859424B415B000B495B5EBB42E1D03A
:103E60006B46D91D0F7000200028EAD193699B068C
:103E7000FCD40B78136001300131F5E703B0F0BDDD
:103E8000000900200080FCBFFC080020F0B583B0D2
:103E900006000F00002004E06B4607331B782370F8
:103EA0002800B84215DA0E4B1A68936910242100D5
:103EB00019401C420DD1451C34186B46D81D0029F1
:103EC000EAD19369DB06FCD4136803700131013039
:103ED000F5E7002801D003B0F0BD0338FBE7C0468A
:103EE0000009002070B515001C000B4B1860FDF791
:103EF0009FFB002D06DA002C09DA01210748FFF7A5
:103F000023FF70BD02212800FCF722FAF3E702210B
:103F10002000FCF71DFAF0E70009002060020020F5
:103F200010B5064B1B78064B1B78E12101230022BC
:103F300049020448FFF7D6FF10BDC046046E0010CA
:103F4000086E00100040034010B50A4B1B68002BA0
:103F500008D1094B802252051A60BFF34F8FBFF37F
:103F60006F8F10BD6A21054B054AFF310548FDF7EB
:103F7000A5FBC046E006002004ED00E0D864001078
:103F8000FC650010F8640010074B1B68002B09D07B
:103F9000064A1168BFF35F8F00221A6081F3108810
:103FA000014B1A6062B67047E00600200C0902203F
:103FB00010B5D0231B061B68984204D0D0231B06E3
:103FC00000225A6510BD8421024B034AFF31034889
:103FD000FDF774FB3C650010F0650010F8640010FC
:103FE00010B50A4B1B78FF2B03D1D0231B06186892
:103FF00010BDFCF738F9002805D0D0231B061B683C
:104000004000C018F4E700F081FBF1E774020020E3
:1040100010B582B0EFF30583DBB2002B25D1244B22
:104020001B78FF2B27D0234B1B68002B2CD1036858
:10403000002B2FD01F4C23601F4A11601F4A94464B
:1040400063449B10012199400B021943090A1C4B40
:10405000186801235B4200930023012200F0AAF8B4
:104060002368002B1DD102B010BD164B164A17490C
:104070001748FDF723FB0368BFF35F8F00221A6028
:1040800081F3108820BFEEE7124B0F4A1249104807
:10409000FDF714FBC321114B0B4A89000C48FDF7B7
:1040A0000DFB0C4B084A0E490948FDF707FBC046BB
:1040B00074020020E00600200C09022000FFFF2F00
:1040C0001C09022058650010CC650010FE0200009B
:1040D000F8640010D864001007030000B8650010F1
:1040E0001303000010B582B00C0002681B4B9C4605
:1040F000624492100123934019021943090A184B94
:104100001B78FF2B20D040BF0368BFF35F8F0022D6
:104110001A6084F31088EFF30583DBB2002B04D11F
:10412000104B186800F0D8F816E0002301930D4BEF
:10413000186801AA00F020F9019B002B0CD00A4B53
:10414000802252051A6007E040BF0368BFF35F8F0B
:1041500000221A6084F3108802B010BD00FFFF2F08
:10416000740200201C09022004ED00E010B500F0EC
:1041700014F8014B186010BD1C090220002A03D15D
:10418000014206D1100003E00840884203D000201D
:1041900070470120FCE70120FAE710B51C2001F070
:1041A000E3F9041E03D0002308C000F0EFF820005C
:1041B00010BD0000F8B5CE46474680B506000D009C
:1041C0009046994600282ED00B0E1F06002B31D1A9
:1041D000002936D001F08EF9002802D1089B002B6F
:1041E00036D100F037FD34684A4629002000FFF739
:1041F000C5FF002833D04346002B02D02300AB4339
:10420000336001F07BF8002F08D0002841D001F086
:1042100089F9040083013FD52402240A2000C0BC90
:10422000B946B046F8BDA421254B264A4900264888
:10423000FDF744FA4A21254B224AFF312248FDF777
:104240003DFAA521224B1F4A49001F48FDF736FAC7
:104250004E21204B1B4AFF311B48FDF72FFA089BCC
:10426000002B14D04346002B0ED139004B46002BB7
:1042700002D08023DB0419432943301D089A00F043
:10428000A7FD3C00089FBCE780214904EEE7089F9A
:10429000B7E700F021FEBAE700F032FE34684A4684
:1042A00029002000FFF76AFF002805D04346002BB5
:1042B00002D02300AB43336000F0C0FEACE7C04641
:1042C000086600100C6700101466001040660010AD
:1042D0006866001080660010F8B504000D00002824
:1042E0000CD00B0E1F06002B0ED106000C3600F072
:1042F000B1FC206923681D43256018E0174B184A5C
:1043000018491948FDF7DAF98821184B144A890031
:104310001548FDF7D3F921681940994206D111E0FB
:10432000802189042368194301F09CF82800B042D9
:104330000CD04568026813021B0A5101EBD42168B6
:104340000B42F3D0D201EBD51F43E9E72368BB430F
:10435000236000F0D3FF2068F8BDC0460866001057
:10436000F86600101F02000014660010D4660010EA
:1043700010B5FFF7B1FF10BD10B513000A00010022
:10438000014801F0DDF810BD71430010030008334F
:104390004360012252428260C360036100230360D4
:1043A000704743684B609A688A6051609960086101
:1043B000036801330360704730B50C68631C10D08C
:1043C000030008331A005B681D68A542FAD95368D8
:1043D0004B6099608A605160086103680133036033
:1043E00030BD0269F3E70369416882688A60416809
:1043F00051605A68824206D0002202611A68013A6E
:104400001A601868704782685A60F5E770B5040052
:104410001500866B026C002A0CD10368002B03D0B8
:1044200000200136A66370BD806800F007FD002300
:10443000A360F6E7002D0ED14068FFF79BFB636891
:10444000226C944663446360A26893421BD3236842
:1044500063602800E5E7C068FFF78CFB236C5A42D5
:10446000E168CB1AE36021688B4203D2A3689C46C3
:104470006244E260022D01D00020D2E7002E04D079
:10448000013E0020CDE72800CBE70020C9E700006F
:1044900070B582B00190846C002C0AD0A26BE36BE3
:1044A0009A420CD2A26B93420FD80025280002B08A
:1044B00070BD174B174A18491848FDF7FFF8184BFD
:1044C000144A18491548FDF7F9F84523E65C76B219
:1044D000002201A92000FFF799FF0500731C06D0F8
:1044E0007F2E0FD0013676B24523E654DEE7636AAD
:1044F000002BDBD02000243000F098F90028D5D024
:104500000125D3E7084B034A08490448FDF7D6F8CC
:104510002067001090680010A80B0000346700109E
:104520005C670010A90B0000A4670010C90B000015
:10453000F0B5CE46474680B583B004000F00019227
:104540001D0000281CD0002921D0022D02D1E36BD0
:10455000012B25D1EFF3108872B600F0D1FCA36BCC
:10456000E26B934222D3022D20D0002400F066FD9E
:1045700088F31088200003B0C0BCB946B046F0BD37
:10458000F9212F4B2F4A89002F48FDF797F8036C2C
:10459000002BDAD02D4B2B4A2D492B48FDF78EF8F6
:1045A0002C4B284A2C492848FDF788F84523E65C1F
:1045B00076B2A36B99462A0039002000FFF726FF48
:1045C000731C07D07F2E2BD0013676B24523E654DC
:1045D0000124CBE7A36C002B10D0022D02D14B4657
:1045E000002B23D12000FFF753FF002820D0019A91
:1045F000002A1FD0012313600124B7E7636A002B50
:1046000001D10124B2E72000243000F00FF9002886
:1046100012D0019A002A11D0012313600124A5E7CA
:104620000E4B084A0E490848FDF748F801249DE75B
:1046300001249BE7012499E7012497E7012495E7EA
:10464000C46700107468001034670010CC67001055
:10465000E503000024680010E6030000A4670010D2
:104660006F040000EFF3108272B6D0231B061B68A4
:104670009B000249585882F3108870476409022051
:10468000084B1B681B68002B04D1074B01225242C8
:104690001A607047034B1B68DB681A68024B1A608C
:1046A000F7E7C046580400202409022010B5040092
:1046B000EFF30583DBB2002B04D0D0231B061B686D
:1046C00098420FD0A3000F4A9B585B6B023308D06F
:1046D000D0231B061B689C4209D1A4000A4B01226F
:1046E000E25010BD8400084B0122E250F9E720009F
:1046F000FFF75EFCA400034BE358022252425A63C8
:10470000EFE7C0465004002064090220EFF3108256
:1047100072B6D0231B061B689B000249585882F3CF
:104720001088704750040020F0B5C64600B505005B
:104730000C00FFF7EBFFC36C002B0ED0EB6A344A82
:104740001268934255D31F00002C00D15F1E002435
:10475000002601235B42984607E0B6212D4B2E4AE6
:1047600089002E48FCF7AAFF0134012C1DDC2C4BDC
:10477000A200D158C86AD158896B411AD3585B6BD3
:10478000012BF1D81300274A9B58002BECD18F4204
:1047900001DBA0460F000029E6DBEB6A8B42E3DD7C
:1047A0002000FFF783FF0136DEE7002E02D14346EB
:1047B000012B21D9D0231B061B689900184A8A585F
:1047C000926B002A15D1E96A9A0015481258D26AEC
:1047D00091420ED99A0013495258012A09D09A00E1
:1047E0001258526B002A04DB9B001B585B6B012B99
:1047F00006DD80BCB846F0BD4046FFF757FFD9E75D
:10480000CB21094B044A89000448FCF757FFC046F6
:1048100018090220DC680010AC6D0010B4680010AC
:1048200050040020640902201069001070B5C368AC
:10483000DC68002C29D0250018352800FFF7D3FDAF
:10484000174B1B68002B26D1251D2800FFF7CBFD39
:10485000E36A144A1268934201D9124A136098001D
:10486000C0188000104BC0182900FFF79AFD0021E6
:104870002000FFF759FFD0231B061B689B000B4A43
:104880009858002800D0012070BD094B094A0A49F8
:104890000A48FCF713FF29000948FFF782FDE6E705
:1048A0001409022018090220600400206409022073
:1048B000DC6900101C6D0010930F0000B46800103C
:1048C0003009022070B505000C001A4B1E68FFF776
:1048D0001DFF79230022C254FFF718FF0430FFF7B1
:1048E00082FD6B1C01D1002C0ED17419FFF70EFF55
:1048F0004460A6420FD9104B1C68FFF707FF011D4B
:104900002000FFF759FD70BDFFF700FF011D0B48A8
:10491000FFF747FDF7E70A4B1D68FFF7F7FE011D9C
:104920002800FFF749FD074B1B68A342EBD9054B55
:104930001C60E8E75C0902205C04002048090220B2
:10494000580400202409022070B5EFF30583DBB280
:10495000002B00D052E1D0231B061B689B00A84A05
:104960009D587CE0A74BA84AA849A948FCF7A6FE99
:10497000A84BA94AC721A948FCF7A0FEA84BA64A04
:10498000C821A648FCF79AFEA24BA34AC721A34818
:10499000FCF794FEA24BA04AC821A048FCF78EFE6B
:1049A000D0231B0619689F4B5A5C930700D4A1E0E3
:1049B0009D4B5B78002B00D1A2E0013BDBB29A4813
:1049C0004370002B08D102339A43964B5A54BFF3DD
:1049D0005F8F964B01221A606B6B023300D095E01B
:1049E000FFF7D2FA6B6B023300D196E0EFF310833E
:1049F00072B6D0231B061A688C4B1B68002B00D1A3
:104A000091E0BFF35F8F884B5B78002B00D0A2E072
:104A1000854B0121597083498B5C022003438B54E1
:104A2000D0231B061A68824B1B68002B00D198E02C
:104A3000BFF35F8F7C4B1B78002B00D0A9E07A4B33
:104A40000121197077498B5C012003438B54FFF7D8
:104A50005DFEC464774B1E60002C00D19FE06B6B41
:104A6000023300D0CAE0EC6C724B1E68A319012B14
:104A700000D077E76F4B00221A60002C90D0002303
:104A8000EB64D0231B061968664B5A5CD30700D42D
:104A90006EE7654B1B78002B00D16FE7013BDBB263
:104AA00061480370002B07D101339A435D4842549B
:104AB000BFF35F8F5E4A1360D0231B061968594B02
:104AC0005A5C930700D45FE7574B5B78002B00D10B
:104AD00060E7013BDBB254484370002B00D07BE71A
:104AE00002339A434F4B5A54BFF35F8F4F4B01220F
:104AF0001A6071E7474B484AC7214848FCF7DEFD7A
:104B0000474B454AC8214548FCF7D8FDA6214A4BEA
:104B10003D4A89003E48FCF7D1FD484B3A4A484996
:104B20003B48FCF7CBFD3F4B9B5C9B070DD53E4BB9
:104B30005B78FF2B03D001333B4A537070E7414B46
:104B4000354ABC213548FCF7B9FD384B1B68002BB2
:104B500000D056E7F9E73C4B2F4AC3212F48FCF71A
:104B6000ADFD304B9B5CDB070DD52F4B1B78FF2B2E
:104B700003D001332C4A137069E7324B264ABC211B
:104B80002648FCF79BFD2A4B1B68002B00D04FE703
:104B9000F9E72D4B204AC3212048FCF78FFD002E5A
:104BA0001AD0D0231B0619681E4B5A5CD30719D59F
:104BB0001D4B1B78002B1BD0013BDBB21A48037046
:104BC000002B00D04BE701339A4316484254BFF301
:104BD0005F8F174A136042E71C4B0B4A1C490C4875
:104BE000FCF76CFD0B4B0C4AC7210C48FCF766FD2B
:104BF0000B4B094AC8210948FCF760FD70BDC0464F
:104C000050040020EC6900107C6D00108702000049
:104C1000B4680010246A0010986D0010506A0010EB
:104C2000A06A001004090220080902203C0100D0FB
:104C3000380100D014090220C86A0010006B00106F
:104C40009F020000386B0010646B00108C6B00102A
:104C5000AA02000010B5524B1B68002B00D110BDFA
:104C6000EFF3108472B6D0231B061A684D4B1B68F5
:104C7000002B46D0BFF35F8F4B4B5B78002B57D197
:104C8000494B0121597049498B5C022003438B54E5
:104C9000D0231B061A68464B1B68002B4ED0BFF36F
:104CA0005F8F414B1B78002B5FD13F4B0121197067
:104CB0003E498B5C012003438B543E4A1368013309
:104CC0001360D0231B061968384B5A5CD30752D5A2
:104CD000354B1B78002B54D0013BDBB232480370BC
:104CE000002B07D101339A4330484254BFF35F8F02
:104CF0002F4A13602F4B1B68012B48D084F3108878
:104D0000ADE72A4B9B5C9B070DD5274B5B78FF2BB0
:104D100003D00133244A5370BAE7274B274ABC21FA
:104D20002748FCF7CBFC1F4B1B68002BA2D1FAE7EE
:104D3000244B224AC3212248FCF7C0FC1B4B9B5C3E
:104D4000DB070DD5184B1B78FF2B03D00133164A18
:104D50001370B2E7184B194ABC211948FCF7AEFC96
:104D6000134B1B68002B9AD1FAE7164B134AC32149
:104D70001348FCF7A3FC144B104AC7211048FCF75A
:104D80009DFC124B0D4AC8210D48FCF797FCFFF71C
:104D9000BDFCC36C002BB1D1FFF7D6FDAEE7C0461A
:104DA000440902203C0100D0080902200409022025
:104DB000380100D014090220386B0010986D0010E3
:104DC000506A0010646B0010246A0010A06A001082
:104DD00070B504000D001600002815D0104B1B689C
:104DE000002B17D0FFF792FC80210906294381612F
:104DF000FFF78CFC010018312000FFF7D2FA0121E7
:104E00003000FFF75FFD70BD064B074A07490848B1
:104E1000FCF754FC074B044A07490548FCF74EFCD5
:104E200014090220D06B0010386D0010470F0000ED
:104E3000B4680010DC6B00104B0F000070B5041E4E
:104E400035D0FFF763FC84420CD1E36D002B0FD00B
:104E5000013BE365E26AA16D8A422AD0002B0DD0A6
:104E6000002025E0144B154A15491648FCF726FC8E
:104E7000154B124A15491348FCF720FC251D280044
:104E8000FFF7B1FAA36DE3622022D21AA261104AA1
:104E90001268934201D90E4A13609800C01880002E
:104EA0000C4BC0182900FFF77CFA012000E000201D
:104EB00070BD0020FCE7C046F86B0010D06D0010FC
:104EC000D3130000B4680010206C0010D41300004D
:104ED000180902206004002010B5FFF717FCC36C0E
:104EE000002B07D0D0231B061B689B00034A01211F
:104EF000995010BDFFF728F8FBE7C046640902206F
:104F000010B5EFF3108372B6424B1B68002B00D133
:104F100010BDFFF7FBFBC36C002B19D1EFF305832A
:104F2000DBB2002B25D0D0231B061A683A4B1B6836
:104F3000002B51D0BFF35F8F384B1B78002B62D111
:104F4000364B0121197036498B5C012003438B5489
:104F5000FFF7DCFBC36C0133C364324B1B68002BCF
:104F6000D6D1FFF7D3FBC36C012BD1D1FFF7ECFCFB
:104F7000CEE7D0231B061A682B4B1B68002B0ED0E4
:104F8000BFF35F8F254B5B78002B1FD1234B012193
:104F9000597023498B5C022003438B54C3E7204B99
:104FA0009B5C9B070DD51D4B5B78FF2B03D001331A
:104FB0001A4A5370B7E71D4B1D4ABC211D48FCF728
:104FC0007DFB194B1B68002BDAD1FAE71A4B184A04
:104FD000C3211848FCF772FB114B9B5CDB070DD516
:104FE0000E4B1B78FF2B03D001330C4A1370AFE735
:104FF0000E4B0F4ABC210F48FCF760FB064B1B68A9
:10500000002B97D1FAE70C4B094AC3210948FCF75A
:1050100055FBC04644090220380100D0080902208F
:1050200004090220140902203C0100D0386B001052
:10503000986D0010506A0010646B001010B53C4B66
:105040001B68002B00D110BDFFF760FBC36C002B69
:105050004FD0FFF75BFBC36C002BF4D0FFF756FB80
:10506000C36C013BC364FFF751FBC36C002BEAD157
:10507000D0231B0619682F4B5A5CD3073FD52E4B04
:105080001B78002B41D0013BDBB22B480370002B77
:1050900007D101339A4327484254BFF35F8F274A11
:1050A0001360EFF30583DBB2002BCCD1D0231B06BA
:1050B0001968204B5A5C93072DD51F4B5B78002B4A
:1050C0002FD0013BDBB21C484370002B08D10233C8
:1050D0009A43184B5A54BFF35F8F194B01221A6041
:1050E000FEF752FFFFF7BEFA0028ACD0FEF72CFF08
:1050F000A9E7144B144A15491548FCF7DFFA154B7C
:10510000154AC7211548FCF7D9FA154B124AC82190
:105110001248FCF7D3FA0F4B0F4AC7210F48FCF790
:10512000CDFA0F4B0C4AC8210C48FCF7C7FAC04611
:10513000440902200409022008090220380100D095
:105140003C0100D0DC680010BC6D0010C1140000F0
:10515000B4680010246A0010986D0010506A0010A6
:10516000A06A0010F0B583B0082200216846FEF75F
:10517000FBFCFFF7C5FE524B1D68002D00D092E0EE
:10518000504B1F6801371F60002F10D14E4B1B681A
:105190001B68002B11D14C4A11684C4B18681060E9
:1051A00019604B4A136801331360FFF769FA494BE2
:1051B0001B68BB421BD92B0039E0474B474A484983
:1051C0004848FCF77BFA434B012252421A60F2E74F
:1051D000404A1360EFE793009B189800424BC018B9
:1051E0003100FFF7DEF801212000FFF79DFA364B72
:1051F0001B681B68002BE6D0334B1B68DB68DC6840
:1052000063689F42E4D3261D3000FFF7ECF8A36AE1
:10521000002B03D020001830FFF7E5F8E26A334B8B
:105220001B689A42D7D9314B1A60D4E70133012B5E
:105230000FD89A002E495258D16A8A00521891000C
:10524000294A8A58012AF1D99A0001216846115049
:10525000ECE7284B1B68002B01D02B0003E0FBF789
:1052600075F8FAE70133012B09D89A002249525800
:10527000002AF7D09A00012168461150F2E7D023A6
:105280001B061E68002401E001240135012D11D800
:10529000AB006A469B58002BF7D0B542F4D02800EB
:1052A000FFF704FAF1E7134A136801331360FBF7C1
:1052B0004DF80024FFF7C2FE200003B0F0BDC04649
:1052C000140902205C090220580400205C0400201C
:1052D0002809022024090220386C0010586D0010A3
:1052E000AB0D0000B4680010600400201809022013
:1052F000500400202C0902206409022070B5464B9E
:105300001C68002C01D1200070BDFFF7F9FDD023EF
:105310001B061D68414B1B68002B27D03F4A1368B2
:10532000013B1360D0231B0619683D4B5A5C930761
:1053300022D53C4B5B78002B24D0013BDBB23948B3
:105340004370002B08D102339A43354B5A54BFF3B4
:105350005F8F354B01221A60304B1B68002B57D1F1
:10536000324B1B68002B32D1002452E0304B314AC3
:1053700031493248FCF7A2F9314B324AC721324851
:10538000FCF79CF9314B2F4AC8212F48FCF796F9BE
:105390009800C01880002E4BC0183100FFF701F8AC
:1053A0002C4B1B68002B14D02A4BDB68DC682000D8
:1053B0001830FFF718F8261D3000FFF714F8E36ADD
:1053C000254A12689342E3D9234A1360E0E7002498
:1053D000E6E7002C01D0FFF753F9204B1C68002CA6
:1053E00009D1AD001E4BEC58002C12D0012410E066
:1053F000013C002C08D0FFF7B5FE0028F8D0AB0028
:10540000174A01219950F3E7144B00221A60E8E78C
:105410000024FFF713FE76E7440902201409022056
:1054200004090220080902203C0100D010090220D2
:10543000B06C00106C6D00109C0B0000B468001084
:10544000246A0010986D0010506A0010A06A0010C5
:105450006004002030090220180902202C090220D3
:105460006409022070B51A4B1B68002B24D08023DE
:105470001B0619430160C468002C23D0FEF7B3FF5C
:10548000251D2800FEF7AFFFE36A124A1268934217
:1054900001D9104A13609800C01880000E4BC01844
:1054A0002900FEF77EFFFFF72BFD00212000FFF70C
:1054B0003BF9FFF7C3FD70BD084B094A09490A488B
:1054C000FCF7FCF8094B064A09490748FCF7F6F8CF
:1054D000140902201809022060040020C86C001082
:1054E000F86C0010C50F0000B4680010DC690010F3
:1054F000CD0F000010B5094B1B68002B02D1012411
:10550000200010BDFFF7FCFC054B1B68002B03D1EE
:105510000224FFF793FDF3E70024FAE74409022091
:105520001409022070B5FFF7F1F88469FFF7EEF86F
:10553000C56AFFF7EBF820235B1B8361200070BD79
:1055400010B584B014001A0002235B42009301904E
:1055500002910394034B186800236946FEF7E8FFA5
:1055600004B010BD6009022070B50400430707D0E5
:10557000072302009A4313000833834214D80024FF
:10558000FFF768FB174B1B68002B0FD0002C13D0C4
:10559000154B1B681C19154A944214D8A34216D304
:1055A000FFF7ACFE00250AE01C00E9E7104B0722DC
:1055B00093430C4A1360E9E7FFF7A0FE0025FAF7D2
:1055C000B7FE280070BDFFF799FE0025F7E7054AF2
:1055D0001568ED18044B1C60FFF790FE002DF0D10C
:1055E000EDE7C0464C04002020090220F7FF01002F
:1055F0000C09002010B583070AD00300032102E044
:1056000001330B4205D01A78002AF9D1181A10BDBF
:10561000030019680C4A0D4C8A188A4322420FD1A4
:105620005968094A04338A188A43224208D15968C2
:10563000054A04338A188A432242F1D000E001333C
:105640001A78002AFBD1E1E7FFFEFEFE8080808011
:10565000F8B5C0460000000001B40248844601BC11
:10566000604700BF4101002001B40248844601BCEC
:10567000604700BF8101002001B40248844601BC9C
:10568000604700BF8101002001B40248844601BC8C
:10569000604700BFFD00002001B40248844601BC01
:0856A000604700BFC1000020BB
:1056A8002820766F6C6174696C6520766F69642058
:1056B8002A2029202828766F6964202A2930290081
:1056C800443A5C7069636F5C7069636F2D467265FC
:1056D8006552544F535C6578616D706C65735C53AB
:1056E80074616E646172645C6D61696E2E63000042
:1056F800764170706C69636174696F6E4D616C6C32
:105708006F634661696C6564486F6F6B00000000E9
:1057180064656C7461203E3D202D3230343820267B
:10572800262064656C7461203C3D2032303436207C
:10573800262620212864656C7461202620312900E2
:10574800443A5C7069636F5C7069636F2D73646B56
:105758005C7372635C7270325F636F6D6D6F6E5CE9
:1057680068617264776172655F6972715C69727190
:105778002E630000212864656C7461203E3E203150
:105788003175290063757272656E74203D3D205F26
:105798005F756E68616E646C65645F757365725F72
:1057A800697271207C7C2063757272656E74203D0D
:1057B8003D2068616E646C65720000006972715FFB
:1057C80068616E6465725F636861696E5F66726561
:1057D800655F736C6F745F68656164203E3D20305F
:1057E80000000000767461626C655F68616E646CCD
:1057F8006572203D3D205F5F756E68616E646C6503
:10580800645F757365725F697271000021282828CA
:105818002875696E747074725F7429767461626C2D
:10582800655F68616E646C657229202D2028287573
:10583800696E747074725F74296972715F68616EE1
:10584800646C65725F636861696E5F736C6F7473B3
:1058580029202D2031292573697A656F662873748C
:1058680072756374206972715F68616E646C6572C9
:105878005F636861696E5F736C6F7429290000004B
:1058880030783163203D3D20282A696E7374293EA3
:105898003E313175000000002165786365707469D8
:1058A8006F6E207C7C20657863657074696F6E20EC
:1058B8003D3D206E756D202B2031360066616C737E
:1058C8006500000069735F7368617265645F69727F
:1058D800715F7261775F68616E646C657228736C62
:1058E8006F745F68616E646C6572290065786365C2
:1058F8007074696F6E000000666F756E640000005A
:105908006972715F6164645F7461696C5F746F5F11
:10591800667265655F6C697374000000696E736513
:1059280072745F6272616E63685F616E645F6C69F6
:105938006E6B00006972715F72656D6F76655F6886
:10594800616E646C657200006D616B655F627261A7
:105958006E6368007265736F6C76655F6272616E04
:10596800636800006972715F7365745F6578636C62
:1059780075736976655F68616E646C6572000000B6
:1059880072742D3E616C61726D5F6964203D3D20CB
:1059980069640000443A5C7069636F5C7069636FA6
:1059A8002D73646B5C7372635C636F6D6D6F6E5C9B
:1059B8007069636F5F74696D655C74696D652E638A
:1059C800000000006964202626206964203C3D20F0
:1059D800706F6F6C2D3E686561702D3E6D61785FEC
:1059E8006E6F646573000000256C6C64202868691C
:1059F8002025303278290000696420262620696431
:105A0800203C3D20686561702D3E6D61785F6E6F4A
:105A180064657300443A5C7069636F5C7069636FB6
:105A28002D73646B5C7372635C636F6D6D6F6E5C1A
:105A38007069636F5F7574696C5C696E636C7564BB
:105A4800652F7069636F2F7574696C2F7068656155
:105A5800702E6800706172656E745F696400000082
:105A68006368696C645F6964000000007061726556
:105A78006E745F696420213D206368696C645F69A6
:105A8800640000002170685F636F6E7461696E73F3
:105A98005F6E6F646528706F6F6C2D3E686561700E
:105AA8002C2072657573655F6964290075735F736F
:105AB800696E63655F626F6F74203C3D20494E5488
:105AC80036345F4D41580000443A5C7069636F5C3E
